:100000000C945A000C9464000C947B000C946400D3
:100010000C9464000C9464000C9464000C946400D0
:100020000C9464000C9464000C9464000C946400C0
:100030000C9464000C9464000C9464000C946400B0
:100040000C9464000C9464000C9464000C946400A0
:100050000C9464000C9464000C9464000C94640090
:100060000C9464000C9464000C9464000C94640080
:100070000C9464000C9464000C9464000C94640070
:100080000C9464000C9464000C9464000C94640060
:100090000C9464000C9464000C9464000C94640050
:1000A0000C9464000C9464000C9464000C94640040
:1000B0000C94640011241FBECFEFD8E0DEBFCDBF8B
:1000C0000E9466000C949D000C94000084B1806333
:1000D00084B98AB1877F8AB98BB188608BB982E095
:1000E0008093690095B180E3892785B98DB38260DB
:1000F0008DBB7894FFCF1F920F920FB60F921124F1
:100100002F933F938F939F9395B180E1982795B953
:100110002FEF3BE792E9215030409040E1F700C0DB
:10012000000095B1892785B99F918F913F912F91BB
:0E0130000F900FBE0F901F901895F894FFCF00
:00000001FF
