S02600004350453330315F44657369676E41737369676E6D656E74365F5461736B312E7372656367
S11300000C945A000C946C000C946C000C946C00CE
S11300100C946C000C946C000C946C000C946C00AC
S11300200C946C000C946C000C946C000C946C009C
S11300300C946C000C946C000C946C000C946C008C
S11300400C946C000C946C000C946C000C946C007C
S11300500C946C000C946C000C946C000C946C006C
S11300600C946C000C946C000C946C000C946C005C
S11300700C946C000C946C000C946C000C946C004C
S11300800C946C000C946C000C946C000C946C003C
S11300900C946C000C946C000C946C000C946C002C
S11300A00C946C000C946C000C946C000C946C001C
S11300B00C946C0011241FBECFEFD8E0DEBFCDBF7F
S11300C021E0A0E0B1E001C01D92A230B207E1F747
S11300D00E94BF000C9410010C94000080E48093F3
S11300E07C0085E880937A000895109201011092B3
S11300F0000184E021C0EAE7F0E08081806480832D
S113010080917A0086FDFCCF40917800509179006F
S11301108091000190910101840F951F909301013A
S1130120809300013FEF80E792E03150804090409F
S1130130E1F700C00000822F2FEF280F8111DBCFE1
S113014080910001909101019695879596958795E8
S113015090930101809300012091000130910101ED
S113016042E3429FC001439F900D1124892F992798
S113017086958695909301018093000108950E94CD
S11301806E008BB180688BB984B18E6084B985B1FF
S1130190877F85B985B18D7F85B985B18B7F85B919
S11301A084B1886084B982E38093B30083E8809348
S11301B0B00082E08093B1000E9475008BB188602A
S11301C08BB94F9B10C02FEF89EF90E021508040F6
S11301D09040E1F700C0000085B1826085B985B127
S11301E08B7F85B90FC02FEF89EF90E021508040BD
S11301F09040E1F700C0000085B18D7F85B985B1DD
S1130200846085B98091000190910101982F990F24
S1130210890F982F990F990F890F8093B300CCCF32
S1070220F894FFCF7C
S9030000FC
