:100000000C945A000C9477000C9479000C947700AF
:100010000C9477000C9477000C9477000C94770084
:100020000C9477000C9477000C9477000C94770074
:100030000C9477000C9477000C9477000C94770064
:100040000C9411010C9477000C9477000C947700B9
:100050000C9477000C9477000C9477000C94770044
:100060000C9477000C9477000C9477000C94770034
:100070000C9477000C9477000C9477000C94770024
:100080000C9477000C9477000C9477000C94770014
:100090000C9477000C9477000C9477000C94770004
:1000A0000C9477000C9477000C9477000C947700F4
:1000B0000C94770011241FBECFEFD8E0DEBFCDBF78
:1000C00011E0A0E0B1E0EEEEF9E002C005900D9283
:1000D000AE31B107D9F721E0AEE1B1E001C01D9228
:1000E000A634B207E1F70E9488010C94F5040C9441
:1000F00000001F920F920FB60F9211248F939F93BF
:1001000080913C0190913D01019690933D01809337
:100110003C019F918F910F900FBE0F901F901895EB
:1001200080E480937C0085E880937A0008951092A3
:1001300033011092320184E021C0EAE7F0E08081CF
:100140008064808380917A0086FDFCCF40917800A6
:10015000509179008091320190913301840F951F65
:1001600090933301809332013FEF80E792E031506A
:1001700080409040E1F700C00000822F2FEF280F51
:100180008111DBCF80913201909133019695879553
:100190009695879590933301809332012091320197
:1001A0003091330142E3429FC001439F900D1124DF
:1001B000892F9927869586959093330180933201F4
:1001C000089514BC8FEF86BD81E080936E0085B5E5
:1001D000836085BD789408958AB18B7F8AB98BB18D
:1001E00086608BB984E08093690082E08DBB78944F
:1001F00008959093C5008093C40088E08093C10067
:1002000086E08093C2000895FC0107C09091C00071
:1002100095FFFCCF31968093C60080818111F6CF87
:1002200008951F920F920FB60F9211242F933F93B0
:100230004F935F936F937F938F939F93AF93BF93EE
:10024000CF93DF93EF93FF93809134019091350129
:1002500001969093350180933401809134019091FF
:100260003501853D934008F43FC020913C01309119
:100270003D01ABEABAEA0E94EE01929582958F7039
:1002800089279F7089279F938F9385E091E09F93A3
:100290008F931F9284E18F93CEE1D1E0DF93CF93D0
:1002A0000E94FD018881E0E0F1E080838981828302
:1002B0008BE091E00E94040180E091E00E94040143
:1002C00010923D0110923C0110923B0110923A01B4
:1002D00010923501109234018DB79EB708960FB673
:1002E000F8949EBF0FBE8DBF16BCFF91EF91DF91BA
:1002F000CF91BF91AF919F918F917F916F915F91BE
:100300004F913F912F910F900FBE0F901F90189516
:100310000E94EC000E94E1000E94900087E690E0BD
:100320000E94F90081E191E00E9404012FE78AE137
:1003300096E0215080409040E1F700C000008BB172
:1003400080688BB984B18E6084B985B1877F85B9A7
:1003500085B18D7F85B985B18B7F85B984B1886082
:1003600084B982E38093B30083E88093B00082E095
:100370008093B1000E9497008BB188608BB94F9B2E
:1003800010C02FEF89EF90E0215080409040E1F7BE
:1003900000C0000085B1826085B985B18B7F85B9C9
:1003A0000FC02FEF89EF90E0215080409040E1F79F
:1003B00000C0000085B18D7F85B985B1846085B9A5
:1003C0008091320190913301982F990F890F982FC6
:1003D000990F990F890F8093B300CCCFA29FB001E2
:1003E000B39FC001A39F700D811D1124911DB29F69
:1003F000700D811D1124911D0895AEE0B0E0E3E081
:10040000F2E00C94CC040D891E898F89988D26E02A
:100410002C831A83098397FF02C080E090E801973C
:100420009E838D83AE01455E5F4F698D7A8DCE01CF
:1004300001960E942D024D815E8157FD0AC02F81D9
:100440003885421753070CF49A01F801E20FF31FA5
:1004500010822E96E4E00C94E804ABE0B0E0E3E315
:10046000F2E00C94BE046C017B018A01FC0117824E
:100470001682838181FFCCC1CE0101963C01F60139
:100480009381F70193FD859193FF81917F018823EB
:1004900009F4BAC1853239F493FD859193FF8191B6
:1004A0007F01853229F4B60190E00E942404E7CF51
:1004B000912C212C312CFFE1F315D8F08B3279F0FF
:1004C00038F4803279F08332A1F4232D20611DC0ED
:1004D0008D3261F0803369F4232D216016C0832DA5
:1004E0008260382EE32DE4603E2E2AC0F32DF860A2
:1004F0001DC037FC2DC020ED280F2A3040F08E3271
:10050000B9F436FC81C1232D2064322E19C036FE89
:1005100006C08AE0989E200D1124922E11C0EAE0B8
:100520002E9E200D1124222EF32DF0623F2E08C0A6
:100530008C3621F4832D8068382E02C0883641F431
:10054000F70193FD859193FF81917F018111B3CFD5
:10055000982F9F7D9554933028F40C5F1F4F9FE395
:1005600099830DC0833631F0833771F0833509F0FC
:1005700059C021C0F801808189830E5F1F4F8824F4
:100580008394912C530113C02801F2E04F0E511CAB
:10059000F801A080B18036FE03C0692D70E002C072
:1005A0006FEF7FEFC5010E9419044C018201F32D0A
:1005B000FF773F2E16C0280122E0420E511CF801A1
:1005C000A080B18036FE03C0692D70E002C06FEFDD
:1005D0007FEFC5010E940E044C01F32DF0683F2E01
:1005E000820133FC1BC0822D90E088169906B0F47E
:1005F000B60180E290E00E9424042A94F4CFF50131
:1006000037FC859137FE81915F01B60190E00E9431
:10061000240421102A9421E0821A91088114910463
:1006200071F7E8C0843611F0893641F5F80137FEDC
:1006300007C060817181828193810C5F1F4F08C068
:1006400060817181072E000C880B990B0E5F1F4F84
:10065000F32DFF763F2E97FF09C0909580957095FA
:1006600061957F4F8F4F9F4FF0683F2E2AE030E01B
:10067000A3010E946004882E861845C0853731F496
:10068000232D2F7EB22E2AE030E025C0932D997FB6
:10069000B92E8F36C1F018F4883579F0B5C080379F
:1006A00019F0883721F0B0C0E92FE061BE2EB4FE0A
:1006B0000DC0FB2DF460BF2E09C034FE0AC0292FE7
:1006C0002660B22E06C028E030E005C020E130E010
:1006D00002C020E132E0F801B7FE07C060817181FD
:1006E000828193810C5F1F4F06C06081718180E021
:1006F00090E00E5F1F4FA3010E946004882E8618B1
:10070000FB2DFF773F2E36FE0DC0232D2E7FA22E10
:10071000891458F434FE0BC032FC09C0832D8E7E40
:10072000A82E05C0B82CA32C03C0B82C01C0B92C2E
:10073000A4FE0FC0FE01E80DF11D8081803321F47D
:100740009A2D997EA92E09C0A2FE06C0B394B39437
:1007500004C08A2D867809F0B394A3FC11C0A0FED2
:1007600006C0B21488F4280C922C9B180EC0B21448
:1007700060F4B60180E290E00E942404B394F7CFC5
:10078000B21418F42B1802C0982C212CA4FE10C00F
:10079000B60180E390E00E942404A2FE17C0A1FCF1
:1007A00003C088E790E002C088E590E0B6010CC085
:1007B0008A2D867859F0A1FE02C08BE201C080E24A
:1007C000A7FC8DE2B60190E00E942404891438F45D
:1007D000B60180E390E00E9424049A94F7CF8A94B3
:1007E000F301E80DF11D8081B60190E00E94240420
:1007F0008110F5CF222009F442CEB60180E290E0CC
:100800000E9424042A94F6CFF6018681978102C0C3
:100810008FEF9FEF2B96E2E10C94DA04FC01059038
:10082000615070400110D8F7809590958E0F9F1FF2
:100830000895FC016150704001900110D8F7809537
:1008400090958E0F9F1F08950F931F93CF93DF9363
:10085000FB01238121FD03C08FEF9FEF2CC022FFFE
:1008600016C046815781248135814217530744F4CD
:10087000A081B1819D012F5F3F4F318320838C93F5
:10088000268137812F5F3F4F3783268314C08B012A
:10089000EC01FB010084F185E02D0995892BE1F63F
:1008A000D80116968D919C911797019617969C9357
:1008B0008E931697CE01DF91CF911F910F910895DE
:1008C000FA01AA27283051F1203181F1E8946F9381
:1008D0006E7F6E5F7F4F8F4F9F4FAF4FB1E03ED027
:1008E000B4E03CD0670F781F891F9A1FA11D680FC5
:1008F000791F8A1F911DA11D6A0F711D811D911DF8
:10090000A11D20D009F468943F912AE0269F11246C
:100910003019305D3193DEF6CF010895462F4770D0
:10092000405D4193B3E00FD0C9F7F6CF462F4F702B
:10093000405D4A3318F0495D31FD4052419302D089
:10094000A9F7EACFB4E0A69597958795779567952F
:10095000BA95C9F700976105710508959B01AC012F
:100960000A2E06945795479537952795BA95C9F756
:10097000620F731F841F951FA01D08952F923F9231
:100980004F925F926F927F928F929F92AF92BF929F
:10099000CF92DF92EF92FF920F931F93CF93DF934B
:1009A000CDB7DEB7CA1BDB0B0FB6F894DEBF0FBEA8
:1009B000CDBF09942A88398848885F846E847D84F5
:1009C0008C849B84AA84B984C884DF80EE80FD80F7
:1009D0000C811B81AA81B981CE0FD11D0FB6F8946D
:0E09E000DEBF0FBECDBFED010895F894FFCF2E
:1009EE00312E310A00252E32640A005250533A201D
:0E09FE0000436F6E6E6563746564210D0A0020
:00000001FF
