:100000000C945A000C94BD000C9477000C9477006B
:100010000C9477000C9477000C9477000C94770084
:100020000C9477000C9477000C9477000C94770074
:100030000C9477000C9477000C9477000C94770064
:100040000C9488000C9477000C9477000C94770043
:100050000C9477000C9477000C9477000C94770044
:100060000C9477000C9477000C9477000C94770034
:100070000C9477000C9477000C9477000C94770024
:100080000C9477000C9477000C9477000C94770014
:100090000C9477000C9477000C9477000C94770004
:1000A0000C9477000C9477000C9477000C947700F4
:1000B0000C94770011241FBECFEFD8E0DEBFCDBF78
:1000C00011E0A0E0B1E0E4EDF3E002C005900D9294
:1000D000AA30B107D9F721E0AAE0B1E001C01D9232
:1000E000AE32B207E1F70E943D010C94E8010C9496
:1000F000000084B18C6284B985B1837D85B908958F
:1001000080E58CBD08958EBD0DB407FEFDCF08952A
:100110001F920F920FB60F9211242F938F939F93DC
:10012000809124019091250101969093250180935F
:1001300024018091240190912501853D9340A0F0F8
:1001400080912A0190912B019093270180932601A1
:1001500010922B0110922A0110922901109228016D
:10016000109225011092240116BC9F918F912F911E
:100170000F900FBE0F901F9018951F920F920FB601
:100180000F9211248F939F9380912A0190912B01BC
:10019000019690932B0180932A019F918F910F904C
:1001A0000FBE0F901F90189580E480937C0085E827
:1001B00080937A000895109223011092220184E026
:1001C00021C0EAE7F0E080818064808380917A003A
:1001D00086FDFCCF409178005091790080912201FA
:1001E00090912301840F951F909323018093220106
:1001F0003FEF80E792E0315080409040E1F700C04F
:100200000000822F2FEF280F8111DBCF8091220178
:1002100090912301969587959695879590932301C4
:1002200080932201209122013091230142E3429FD9
:10023000C001439F900D1124892F9927869586959B
:100240009093230180932201089514BC8FEF86BD03
:1002500081E080936E0085B5836085BD78940895B4
:100260008AB18B7F8AB98BB186608BB984E0809329
:10027000690081E08DBB789408950E9430010E944E
:1002800025010E94D4000E9479000E94800084B160
:100290008E6084B98AB188668AB982E38093B3009C
:1002A00083E28093B00082E08093B1000E94DB0083
:1002B0008BB188608BB98BB180628BB98BB18F7B2E
:1002C0008BB98091220190912301982F990F890F6A
:1002D000982F990F990F890F8093B40080910A018C
:1002E00090910B01019739F580912601909127019A
:1002F000909321018093200185B18B7F85B98091F6
:10030000200190912101803F910520F089E70E9412
:10031000830003C080E40E94830082EF0E94830078
:1003200085B1846085B985B18B7F85B910920B0149
:1003300010920A01BBCF2091200130912101ABEA3C
:10034000BAEA0E94D901AC01529542954F704527F7
:100350005F7045279A01ADECBCEC0E94D9019695DF
:10036000879596958795969587959C01220F331FC3
:10037000880F991F880F991F880F991F820F931F4D
:100380009A01281B390BF901E050FF4F80810E9430
:10039000830084EF0E94830085B1846085B985B1B4
:1003A0008B7F85B981E090E090930B0180930A01E7
:1003B0007DCFA29FB001B39FC001A39F700D811D8F
:1003C0001124911DB29F700D811D1124911D08955E
:0403D000F894FFCFCF
:0A03D400C0F9A4B0999282F880905D
:00000001FF
